{
	"Dev_in_REMIX/lec6.sol": {
		"lec6": {
			"abi": [
				{
					"inputs": [],
					"name": "a",
					"outputs": [
						{
							"internalType": "uint256",
							"name": "",
							"type": "uint256"
						}
					],
					"stateMutability": "view",
					"type": "function"
				},
				{
					"inputs": [],
					"name": "read_a",
					"outputs": [
						{
							"internalType": "uint256",
							"name": "",
							"type": "uint256"
						}
					],
					"stateMutability": "view",
					"type": "function"
				},
				{
					"inputs": [],
					"name": "read_b",
					"outputs": [
						{
							"internalType": "uint256",
							"name": "",
							"type": "uint256"
						}
					],
					"stateMutability": "pure",
					"type": "function"
				},
				{
					"inputs": [],
					"name": "read_c",
					"outputs": [
						{
							"internalType": "uint256",
							"name": "",
							"type": "uint256"
						}
					],
					"stateMutability": "nonpayable",
					"type": "function"
				}
			],
			"devdoc": {
				"kind": "dev",
				"methods": {},
				"version": 1
			},
			"evm": {
				"assembly": "    /* \"Dev_in_REMIX/lec6.sol\":73:1587  contract lec6{\r... */\n  mstore(0x40, 0x80)\n    /* \"Dev_in_REMIX/lec6.sol\":684:685  1 */\n  0x01\n    /* \"Dev_in_REMIX/lec6.sol\":665:685  uint256 public a = 1 */\n  0x00\n  sstore\n    /* \"Dev_in_REMIX/lec6.sol\":73:1587  contract lec6{\r... */\n  callvalue\n  dup1\n  iszero\n  tag_1\n  jumpi\n  0x00\n  dup1\n  revert\ntag_1:\n  pop\n  dataSize(sub_0)\n  dup1\n  dataOffset(sub_0)\n  0x00\n  codecopy\n  0x00\n  return\nstop\n\nsub_0: assembly {\n        /* \"Dev_in_REMIX/lec6.sol\":73:1587  contract lec6{\r... */\n      mstore(0x40, 0x80)\n      callvalue\n      dup1\n      iszero\n      tag_1\n      jumpi\n      0x00\n      dup1\n      revert\n    tag_1:\n      pop\n      jumpi(tag_2, lt(calldatasize, 0x04))\n      shr(0xe0, calldataload(0x00))\n      dup1\n      0x0dbe671f\n      eq\n      tag_3\n      jumpi\n      dup1\n      0x436dedbf\n      eq\n      tag_4\n      jumpi\n      dup1\n      0x670e2476\n      eq\n      tag_5\n      jumpi\n      dup1\n      0x937e002a\n      eq\n      tag_6\n      jumpi\n    tag_2:\n      0x00\n      dup1\n      revert\n        /* \"Dev_in_REMIX/lec6.sol\":665:685  uint256 public a = 1 */\n    tag_3:\n      tag_7\n      tag_8\n      jump\t// in\n    tag_7:\n      mload(0x40)\n      tag_9\n      swap2\n      swap1\n      tag_10\n      jump\t// in\n    tag_9:\n      mload(0x40)\n      dup1\n      swap2\n      sub\n      swap1\n      return\n        /* \"Dev_in_REMIX/lec6.sol\":1417:1584  function read_c() public returns(uint256){\r... */\n    tag_4:\n      tag_11\n      tag_12\n      jump\t// in\n    tag_11:\n      mload(0x40)\n      tag_13\n      swap2\n      swap1\n      tag_10\n      jump\t// in\n    tag_13:\n      mload(0x40)\n      dup1\n      swap2\n      sub\n      swap1\n      return\n        /* \"Dev_in_REMIX/lec6.sol\":693:770  function read_a() public view returns(uint256){\r... */\n    tag_5:\n      tag_14\n      tag_15\n      jump\t// in\n    tag_14:\n      mload(0x40)\n      tag_16\n      swap2\n      swap1\n      tag_10\n      jump\t// in\n    tag_16:\n      mload(0x40)\n      dup1\n      swap2\n      sub\n      swap1\n      return\n        /* \"Dev_in_REMIX/lec6.sol\":1203:1375  function read_b() public pure returns(uint256){\r... */\n    tag_6:\n      tag_17\n      tag_18\n      jump\t// in\n    tag_17:\n      mload(0x40)\n      tag_19\n      swap2\n      swap1\n      tag_10\n      jump\t// in\n    tag_19:\n      mload(0x40)\n      dup1\n      swap2\n      sub\n      swap1\n      return\n        /* \"Dev_in_REMIX/lec6.sol\":665:685  uint256 public a = 1 */\n    tag_8:\n      sload(0x00)\n      dup2\n      jump\t// out\n        /* \"Dev_in_REMIX/lec6.sol\":1417:1584  function read_c() public returns(uint256){\r... */\n    tag_12:\n        /* \"Dev_in_REMIX/lec6.sol\":1450:1457  uint256 */\n      0x00\n        /* \"Dev_in_REMIX/lec6.sol\":1538:1547  uint256 b */\n      dup1\n        /* \"Dev_in_REMIX/lec6.sol\":1550:1551  1 */\n      0x01\n        /* \"Dev_in_REMIX/lec6.sol\":1538:1551  uint256 b = 1 */\n      swap1\n      pop\n        /* \"Dev_in_REMIX/lec6.sol\":1574:1575  b */\n      dup1\n        /* \"Dev_in_REMIX/lec6.sol\":1570:1573  4+2 */\n      0x06\n        /* \"Dev_in_REMIX/lec6.sol\":1570:1575  4+2+b */\n      tag_21\n      swap2\n      swap1\n      tag_22\n      jump\t// in\n    tag_21:\n        /* \"Dev_in_REMIX/lec6.sol\":1563:1575  return 4+2+b */\n      swap2\n      pop\n      pop\n        /* \"Dev_in_REMIX/lec6.sol\":1417:1584  function read_c() public returns(uint256){\r... */\n      swap1\n      jump\t// out\n        /* \"Dev_in_REMIX/lec6.sol\":693:770  function read_a() public view returns(uint256){\r... */\n    tag_15:\n        /* \"Dev_in_REMIX/lec6.sol\":731:738  uint256 */\n      0x00\n        /* \"Dev_in_REMIX/lec6.sol\":760:761  2 */\n      0x02\n        /* \"Dev_in_REMIX/lec6.sol\":758:759  a */\n      sload(0x00)\n        /* \"Dev_in_REMIX/lec6.sol\":758:761  a+2 */\n      tag_24\n      swap2\n      swap1\n      tag_22\n      jump\t// in\n    tag_24:\n        /* \"Dev_in_REMIX/lec6.sol\":751:761  return a+2 */\n      swap1\n      pop\n        /* \"Dev_in_REMIX/lec6.sol\":693:770  function read_a() public view returns(uint256){\r... */\n      swap1\n      jump\t// out\n        /* \"Dev_in_REMIX/lec6.sol\":1203:1375  function read_b() public pure returns(uint256){\r... */\n    tag_18:\n        /* \"Dev_in_REMIX/lec6.sol\":1241:1248  uint256 */\n      0x00\n        /* \"Dev_in_REMIX/lec6.sol\":1329:1338  uint256 b */\n      dup1\n        /* \"Dev_in_REMIX/lec6.sol\":1341:1342  1 */\n      0x01\n        /* \"Dev_in_REMIX/lec6.sol\":1329:1342  uint256 b = 1 */\n      swap1\n      pop\n        /* \"Dev_in_REMIX/lec6.sol\":1365:1366  b */\n      dup1\n        /* \"Dev_in_REMIX/lec6.sol\":1361:1364  4+2 */\n      0x06\n        /* \"Dev_in_REMIX/lec6.sol\":1361:1366  4+2+b */\n      tag_26\n      swap2\n      swap1\n      tag_22\n      jump\t// in\n    tag_26:\n        /* \"Dev_in_REMIX/lec6.sol\":1354:1366  return 4+2+b */\n      swap2\n      pop\n      pop\n        /* \"Dev_in_REMIX/lec6.sol\":1203:1375  function read_b() public pure returns(uint256){\r... */\n      swap1\n      jump\t// out\n        /* \"#utility.yul\":7:125   */\n    tag_28:\n        /* \"#utility.yul\":94:118   */\n      tag_30\n        /* \"#utility.yul\":112:117   */\n      dup2\n        /* \"#utility.yul\":94:118   */\n      tag_31\n      jump\t// in\n    tag_30:\n        /* \"#utility.yul\":89:92   */\n      dup3\n        /* \"#utility.yul\":82:119   */\n      mstore\n        /* \"#utility.yul\":7:125   */\n      pop\n      pop\n      jump\t// out\n        /* \"#utility.yul\":131:353   */\n    tag_10:\n        /* \"#utility.yul\":224:228   */\n      0x00\n        /* \"#utility.yul\":262:264   */\n      0x20\n        /* \"#utility.yul\":251:260   */\n      dup3\n        /* \"#utility.yul\":247:265   */\n      add\n        /* \"#utility.yul\":239:265   */\n      swap1\n      pop\n        /* \"#utility.yul\":275:346   */\n      tag_33\n        /* \"#utility.yul\":343:344   */\n      0x00\n        /* \"#utility.yul\":332:341   */\n      dup4\n        /* \"#utility.yul\":328:345   */\n      add\n        /* \"#utility.yul\":319:325   */\n      dup5\n        /* \"#utility.yul\":275:346   */\n      tag_28\n      jump\t// in\n    tag_33:\n        /* \"#utility.yul\":131:353   */\n      swap3\n      swap2\n      pop\n      pop\n      jump\t// out\n        /* \"#utility.yul\":359:664   */\n    tag_22:\n        /* \"#utility.yul\":399:402   */\n      0x00\n        /* \"#utility.yul\":418:438   */\n      tag_35\n        /* \"#utility.yul\":436:437   */\n      dup3\n        /* \"#utility.yul\":418:438   */\n      tag_31\n      jump\t// in\n    tag_35:\n        /* \"#utility.yul\":413:438   */\n      swap2\n      pop\n        /* \"#utility.yul\":452:472   */\n      tag_36\n        /* \"#utility.yul\":470:471   */\n      dup4\n        /* \"#utility.yul\":452:472   */\n      tag_31\n      jump\t// in\n    tag_36:\n        /* \"#utility.yul\":447:472   */\n      swap3\n      pop\n        /* \"#utility.yul\":606:607   */\n      dup3\n        /* \"#utility.yul\":538:604   */\n      0xffffffffffffffffffffffffffffffffffffffffffffffffffffffffffffffff\n        /* \"#utility.yul\":534:608   */\n      sub\n        /* \"#utility.yul\":531:532   */\n      dup3\n        /* \"#utility.yul\":528:609   */\n      gt\n        /* \"#utility.yul\":525:632   */\n      iszero\n      tag_37\n      jumpi\n        /* \"#utility.yul\":612:630   */\n      tag_38\n      tag_39\n      jump\t// in\n    tag_38:\n        /* \"#utility.yul\":525:632   */\n    tag_37:\n        /* \"#utility.yul\":656:657   */\n      dup3\n        /* \"#utility.yul\":653:654   */\n      dup3\n        /* \"#utility.yul\":649:658   */\n      add\n        /* \"#utility.yul\":642:658   */\n      swap1\n      pop\n        /* \"#utility.yul\":359:664   */\n      swap3\n      swap2\n      pop\n      pop\n      jump\t// out\n        /* \"#utility.yul\":670:747   */\n    tag_31:\n        /* \"#utility.yul\":707:714   */\n      0x00\n        /* \"#utility.yul\":736:741   */\n      dup2\n        /* \"#utility.yul\":725:741   */\n      swap1\n      pop\n        /* \"#utility.yul\":670:747   */\n      swap2\n      swap1\n      pop\n      jump\t// out\n        /* \"#utility.yul\":753:933   */\n    tag_39:\n        /* \"#utility.yul\":801:878   */\n      0x4e487b7100000000000000000000000000000000000000000000000000000000\n        /* \"#utility.yul\":798:799   */\n      0x00\n        /* \"#utility.yul\":791:879   */\n      mstore\n        /* \"#utility.yul\":898:902   */\n      0x11\n        /* \"#utility.yul\":895:896   */\n      0x04\n        /* \"#utility.yul\":888:903   */\n      mstore\n        /* \"#utility.yul\":922:926   */\n      0x24\n        /* \"#utility.yul\":919:920   */\n      0x00\n        /* \"#utility.yul\":912:927   */\n      revert\n\n    auxdata: 0xa2646970667358221220cde02c8b459568a644af036bad7b80153e08cd7349bc7c8618761130fd3ef28564736f6c63430008070033\n}\n",
				"bytecode": {
					"linkReferences": {},
					"object": "6080604052600160005534801561001557600080fd5b50610208806100256000396000f3fe608060405234801561001057600080fd5b506004361061004c5760003560e01c80630dbe671f14610051578063436dedbf1461006f578063670e24761461008d578063937e002a146100ab575b600080fd5b6100596100c9565b6040516100669190610128565b60405180910390f35b6100776100cf565b6040516100849190610128565b60405180910390f35b6100956100e9565b6040516100a29190610128565b60405180910390f35b6100b36100ff565b6040516100c09190610128565b60405180910390f35b60005481565b600080600190508060066100e39190610143565b91505090565b600060026000546100fa9190610143565b905090565b600080600190508060066101139190610143565b91505090565b61012281610199565b82525050565b600060208201905061013d6000830184610119565b92915050565b600061014e82610199565b915061015983610199565b9250827fffffffffffffffffffffffffffffffffffffffffffffffffffffffffffffffff0382111561018e5761018d6101a3565b5b828201905092915050565b6000819050919050565b7f4e487b7100000000000000000000000000000000000000000000000000000000600052601160045260246000fdfea2646970667358221220cde02c8b459568a644af036bad7b80153e08cd7349bc7c8618761130fd3ef28564736f6c63430008070033",
					"opcodes": "PUSH1 0x80 PUSH1 0x40 MSTORE PUSH1 0x1 PUSH1 0x0 SSTORE CALLVALUE DUP1 ISZERO PUSH2 0x15 JUMPI PUSH1 0x0 DUP1 REVERT JUMPDEST POP PUSH2 0x208 DUP1 PUSH2 0x25 PUSH1 0x0 CODECOPY PUSH1 0x0 RETURN INVALID PUSH1 0x80 PUSH1 0x40 MSTORE CALLVALUE DUP1 ISZERO PUSH2 0x10 JUMPI PUSH1 0x0 DUP1 REVERT JUMPDEST POP PUSH1 0x4 CALLDATASIZE LT PUSH2 0x4C JUMPI PUSH1 0x0 CALLDATALOAD PUSH1 0xE0 SHR DUP1 PUSH4 0xDBE671F EQ PUSH2 0x51 JUMPI DUP1 PUSH4 0x436DEDBF EQ PUSH2 0x6F JUMPI DUP1 PUSH4 0x670E2476 EQ PUSH2 0x8D JUMPI DUP1 PUSH4 0x937E002A EQ PUSH2 0xAB JUMPI JUMPDEST PUSH1 0x0 DUP1 REVERT JUMPDEST PUSH2 0x59 PUSH2 0xC9 JUMP JUMPDEST PUSH1 0x40 MLOAD PUSH2 0x66 SWAP2 SWAP1 PUSH2 0x128 JUMP JUMPDEST PUSH1 0x40 MLOAD DUP1 SWAP2 SUB SWAP1 RETURN JUMPDEST PUSH2 0x77 PUSH2 0xCF JUMP JUMPDEST PUSH1 0x40 MLOAD PUSH2 0x84 SWAP2 SWAP1 PUSH2 0x128 JUMP JUMPDEST PUSH1 0x40 MLOAD DUP1 SWAP2 SUB SWAP1 RETURN JUMPDEST PUSH2 0x95 PUSH2 0xE9 JUMP JUMPDEST PUSH1 0x40 MLOAD PUSH2 0xA2 SWAP2 SWAP1 PUSH2 0x128 JUMP JUMPDEST PUSH1 0x40 MLOAD DUP1 SWAP2 SUB SWAP1 RETURN JUMPDEST PUSH2 0xB3 PUSH2 0xFF JUMP JUMPDEST PUSH1 0x40 MLOAD PUSH2 0xC0 SWAP2 SWAP1 PUSH2 0x128 JUMP JUMPDEST PUSH1 0x40 MLOAD DUP1 SWAP2 SUB SWAP1 RETURN JUMPDEST PUSH1 0x0 SLOAD DUP2 JUMP JUMPDEST PUSH1 0x0 DUP1 PUSH1 0x1 SWAP1 POP DUP1 PUSH1 0x6 PUSH2 0xE3 SWAP2 SWAP1 PUSH2 0x143 JUMP JUMPDEST SWAP2 POP POP SWAP1 JUMP JUMPDEST PUSH1 0x0 PUSH1 0x2 PUSH1 0x0 SLOAD PUSH2 0xFA SWAP2 SWAP1 PUSH2 0x143 JUMP JUMPDEST SWAP1 POP SWAP1 JUMP JUMPDEST PUSH1 0x0 DUP1 PUSH1 0x1 SWAP1 POP DUP1 PUSH1 0x6 PUSH2 0x113 SWAP2 SWAP1 PUSH2 0x143 JUMP JUMPDEST SWAP2 POP POP SWAP1 JUMP JUMPDEST PUSH2 0x122 DUP2 PUSH2 0x199 JUMP JUMPDEST DUP3 MSTORE POP POP JUMP JUMPDEST PUSH1 0x0 PUSH1 0x20 DUP3 ADD SWAP1 POP PUSH2 0x13D PUSH1 0x0 DUP4 ADD DUP5 PUSH2 0x119 JUMP JUMPDEST SWAP3 SWAP2 POP POP JUMP JUMPDEST PUSH1 0x0 PUSH2 0x14E DUP3 PUSH2 0x199 JUMP JUMPDEST SWAP2 POP PUSH2 0x159 DUP4 PUSH2 0x199 JUMP JUMPDEST SWAP3 POP DUP3 PUSH32 0xFFFFFFFFFFFFFFFFFFFFFFFFFFFFFFFFFFFFFFFFFFFFFFFFFFFFFFFFFFFFFFFF SUB DUP3 GT ISZERO PUSH2 0x18E JUMPI PUSH2 0x18D PUSH2 0x1A3 JUMP JUMPDEST JUMPDEST DUP3 DUP3 ADD SWAP1 POP SWAP3 SWAP2 POP POP JUMP JUMPDEST PUSH1 0x0 DUP2 SWAP1 POP SWAP2 SWAP1 POP JUMP JUMPDEST PUSH32 0x4E487B7100000000000000000000000000000000000000000000000000000000 PUSH1 0x0 MSTORE PUSH1 0x11 PUSH1 0x4 MSTORE PUSH1 0x24 PUSH1 0x0 REVERT INVALID LOG2 PUSH5 0x6970667358 0x22 SLT KECCAK256 0xCD 0xE0 0x2C DUP12 GASLIMIT SWAP6 PUSH9 0xA644AF036BAD7B8015 RETURNDATACOPY ADDMOD 0xCD PUSH20 0x49BC7C8618761130FD3EF28564736F6C63430008 SMOD STOP CALLER "
				},
				"gasEstimates": {
					"creation": {
						"codeDepositCost": "104000",
						"executionCost": "22259",
						"totalCost": "126259"
					},
					"external": {
						"a()": "2407",
						"read_a()": "infinite",
						"read_b()": "infinite",
						"read_c()": "infinite"
					}
				},
				"methodIdentifiers": {
					"a()": "0dbe671f",
					"read_a()": "670e2476",
					"read_b()": "937e002a",
					"read_c()": "436dedbf"
				}
			},
			"storageLayout": {
				"storage": [
					{
						"astId": 4,
						"contract": "Dev_in_REMIX/lec6.sol:lec6",
						"label": "a",
						"offset": 0,
						"slot": "0",
						"type": "t_uint256"
					}
				],
				"types": {
					"t_uint256": {
						"encoding": "inplace",
						"label": "uint256",
						"numberOfBytes": "32"
					}
				}
			},
			"userdoc": {
				"kind": "user",
				"methods": {},
				"version": 1
			}
		}
	}
}